{
  "contractName": "Twitter",
  "abi": [
    {
      "inputs": [],
      "stateMutability": "nonpayable",
      "type": "constructor"
    },
    {
      "anonymous": false,
      "inputs": [
        {
          "indexed": false,
          "internalType": "address",
          "name": "owner",
          "type": "address"
        },
        {
          "indexed": false,
          "internalType": "uint256",
          "name": "accountId",
          "type": "uint256"
        }
      ],
      "name": "AccountRegistered",
      "type": "event"
    },
    {
      "anonymous": false,
      "inputs": [
        {
          "indexed": false,
          "internalType": "uint256",
          "name": "postId",
          "type": "uint256"
        },
        {
          "indexed": false,
          "internalType": "uint256",
          "name": "replyId",
          "type": "uint256"
        },
        {
          "indexed": false,
          "internalType": "uint256",
          "name": "senderId",
          "type": "uint256"
        }
      ],
      "name": "NewPost",
      "type": "event"
    },
    {
      "anonymous": false,
      "inputs": [
        {
          "indexed": false,
          "internalType": "uint256",
          "name": "postId",
          "type": "uint256"
        }
      ],
      "name": "PostEdited",
      "type": "event"
    },
    {
      "anonymous": false,
      "inputs": [
        {
          "indexed": false,
          "internalType": "uint256",
          "name": "postId",
          "type": "uint256"
        },
        {
          "indexed": false,
          "internalType": "uint256",
          "name": "senderId",
          "type": "uint256"
        },
        {
          "indexed": false,
          "internalType": "bool",
          "name": "state",
          "type": "bool"
        }
      ],
      "name": "PostLiked",
      "type": "event"
    },
    {
      "anonymous": false,
      "inputs": [
        {
          "indexed": false,
          "internalType": "uint256",
          "name": "postId",
          "type": "uint256"
        }
      ],
      "name": "PostRemoved",
      "type": "event"
    },
    {
      "inputs": [
        {
          "internalType": "address",
          "name": "",
          "type": "address"
        }
      ],
      "name": "accountIds",
      "outputs": [
        {
          "internalType": "uint256",
          "name": "",
          "type": "uint256"
        }
      ],
      "stateMutability": "view",
      "type": "function",
      "constant": true
    },
    {
      "inputs": [
        {
          "internalType": "uint256",
          "name": "",
          "type": "uint256"
        }
      ],
      "name": "accounts",
      "outputs": [
        {
          "internalType": "bool",
          "name": "registered",
          "type": "bool"
        },
        {
          "internalType": "uint32",
          "name": "postCount",
          "type": "uint32"
        },
        {
          "internalType": "uint32",
          "name": "accountId",
          "type": "uint32"
        },
        {
          "internalType": "string",
          "name": "nickname",
          "type": "string"
        },
        {
          "internalType": "string",
          "name": "avatar",
          "type": "string"
        }
      ],
      "stateMutability": "view",
      "type": "function",
      "constant": true
    },
    {
      "inputs": [
        {
          "internalType": "uint256",
          "name": "",
          "type": "uint256"
        }
      ],
      "name": "idsAccount",
      "outputs": [
        {
          "internalType": "address",
          "name": "",
          "type": "address"
        }
      ],
      "stateMutability": "view",
      "type": "function",
      "constant": true
    },
    {
      "inputs": [],
      "name": "postCount",
      "outputs": [
        {
          "internalType": "uint256",
          "name": "",
          "type": "uint256"
        }
      ],
      "stateMutability": "view",
      "type": "function",
      "constant": true
    },
    {
      "inputs": [
        {
          "internalType": "uint256",
          "name": "",
          "type": "uint256"
        },
        {
          "internalType": "uint256",
          "name": "",
          "type": "uint256"
        }
      ],
      "name": "postLikes",
      "outputs": [
        {
          "internalType": "bool",
          "name": "",
          "type": "bool"
        }
      ],
      "stateMutability": "view",
      "type": "function",
      "constant": true
    },
    {
      "inputs": [
        {
          "internalType": "uint256",
          "name": "",
          "type": "uint256"
        }
      ],
      "name": "posts",
      "outputs": [
        {
          "internalType": "bool",
          "name": "removed",
          "type": "bool"
        },
        {
          "internalType": "bool",
          "name": "edited",
          "type": "bool"
        },
        {
          "internalType": "uint32",
          "name": "senderId",
          "type": "uint32"
        },
        {
          "internalType": "uint32",
          "name": "replyId",
          "type": "uint32"
        },
        {
          "internalType": "uint32",
          "name": "blockNumber",
          "type": "uint32"
        },
        {
          "internalType": "uint32",
          "name": "timestamp",
          "type": "uint32"
        },
        {
          "internalType": "uint32",
          "name": "likes",
          "type": "uint32"
        },
        {
          "internalType": "uint32",
          "name": "repliesCount",
          "type": "uint32"
        },
        {
          "internalType": "string",
          "name": "message",
          "type": "string"
        }
      ],
      "stateMutability": "view",
      "type": "function",
      "constant": true
    },
    {
      "inputs": [
        {
          "internalType": "uint256",
          "name": "",
          "type": "uint256"
        },
        {
          "internalType": "uint256",
          "name": "",
          "type": "uint256"
        }
      ],
      "name": "replies",
      "outputs": [
        {
          "internalType": "uint256",
          "name": "",
          "type": "uint256"
        }
      ],
      "stateMutability": "view",
      "type": "function",
      "constant": true
    },
    {
      "inputs": [],
      "name": "userCount",
      "outputs": [
        {
          "internalType": "uint256",
          "name": "",
          "type": "uint256"
        }
      ],
      "stateMutability": "view",
      "type": "function",
      "constant": true
    },
    {
      "inputs": [
        {
          "internalType": "uint256",
          "name": "",
          "type": "uint256"
        },
        {
          "internalType": "uint256",
          "name": "",
          "type": "uint256"
        }
      ],
      "name": "userPosts",
      "outputs": [
        {
          "internalType": "uint256",
          "name": "",
          "type": "uint256"
        }
      ],
      "stateMutability": "view",
      "type": "function",
      "constant": true
    },
    {
      "inputs": [
        {
          "internalType": "string",
          "name": "pNickname",
          "type": "string"
        },
        {
          "internalType": "string",
          "name": "pAvatar",
          "type": "string"
        }
      ],
      "name": "register",
      "outputs": [],
      "stateMutability": "nonpayable",
      "type": "function"
    },
    {
      "inputs": [
        {
          "internalType": "uint256",
          "name": "pPostId",
          "type": "uint256"
        }
      ],
      "name": "like",
      "outputs": [],
      "stateMutability": "nonpayable",
      "type": "function"
    },
    {
      "inputs": [
        {
          "internalType": "uint256",
          "name": "pPostId",
          "type": "uint256"
        }
      ],
      "name": "unlike",
      "outputs": [],
      "stateMutability": "nonpayable",
      "type": "function"
    },
    {
      "inputs": [
        {
          "internalType": "string",
          "name": "pMessage",
          "type": "string"
        },
        {
          "internalType": "uint256",
          "name": "pReplyId",
          "type": "uint256"
        }
      ],
      "name": "post",
      "outputs": [],
      "stateMutability": "nonpayable",
      "type": "function"
    },
    {
      "inputs": [
        {
          "internalType": "uint256",
          "name": "pPostId",
          "type": "uint256"
        },
        {
          "internalType": "string",
          "name": "pMessage",
          "type": "string"
        }
      ],
      "name": "editPost",
      "outputs": [],
      "stateMutability": "nonpayable",
      "type": "function"
    },
    {
      "inputs": [
        {
          "internalType": "uint256",
          "name": "pPostId",
          "type": "uint256"
        }
      ],
      "name": "removePost",
      "outputs": [],
      "stateMutability": "nonpayable",
      "type": "function"
    }
  ],
  "bytecode": "0x608060405234801561001057600080fd5b506001600081905580556114c9806100296000396000f3fe608060405234801561001057600080fd5b5060043610610112576000357c0100000000000000000000000000000000000000000000000000000000900480634e6c3c95116100b4578063e4a815c211610083578063e4a815c21461024e578063e82935da146102a9578063f2a40db8146102bc578063fa99654a146102e057600080fd5b80634e6c3c95146101f557806374d21ae014610208578063b16fd7661461021b578063de5377651461023b57600080fd5b80631721ed48116100f05780631721ed481461019957806317906c2e146101ae578063204f257c146101b75780633ffbd47f146101e257600080fd5b806307973ccf146101175780630b1e7f83146101335780630f449d801461015b575b600080fd5b61012060005481565b6040519081526020015b60405180910390f35b610146610141366004610e6e565b6102f3565b60405161012a99989796959493929190610ecd565b610189610169366004610f38565b600760209081526000928352604080842090915290825290205460ff1681565b604051901515815260200161012a565b6101ac6101a7366004610e6e565b61041d565b005b61012060015481565b6101206101c5366004610f38565b600860209081526000928352604080842090915290825290205481565b6101ac6101f0366004610fa3565b6104d6565b6101ac61020336600461100f565b610646565b6101ac610216366004610e6e565b6108cf565b61012061022936600461105b565b60036020526000908152604090205481565b610120610249366004610f38565b610a0f565b61028461025c366004610e6e565b60046020526000908152604090205473ffffffffffffffffffffffffffffffffffffffff1681565b60405173ffffffffffffffffffffffffffffffffffffffff909116815260200161012a565b6101ac6102b7366004610e6e565b610a40565b6102cf6102ca366004610e6e565b610b79565b60405161012a959493929190611098565b6101ac6102ee3660046110e7565b610cc8565b6005602052600090815260409020805460018201805460ff8084169461010085049091169363ffffffff620100008204811694660100000000000083048216946a010000000000000000000084048316946e0100000000000000000000000000008504841694720100000000000000000000000000000000000081048516947601000000000000000000000000000000000000000000009091041692909161039a90611133565b80601f01602080910402602001604051908101604052809291908181526020018280546103c690611133565b80156104135780601f106103e857610100808354040283529160200191610413565b820191906000526020600020905b8154815290600101906020018083116103f657829003601f168201915b5050505050905089565b336000908152600360209081526040808320548484526005909252909120805462010000900463ffffffff1682146104735760405160e560020a62461bcd02815260040161046a90611186565b60405180910390fd5b805460ff1916600190811782556040805160208101909152600081529082019061049d9082611261565b506040518381527f4323787dc7b9146e99da5553dee506c8d881e5da3d09774f8b421274287532be9060200160405180910390a1505050565b33600090815260036020908152604080832054835260029091529020805460ff16156105475760405160e560020a62461bcd02815260206004820152601660248201527f4163636f756e7420616c72656164792065786973747300000000000000000000604482015260640161046a565b60008054818061055683611356565b9091555033600090815260036020908152604080832084905583835260029091529020805460ff191660011781559250905061059181610e56565b825463ffffffff91909116650100000000000268ffffffff000000000019909116178255600182016105c486888361136f565b50600282016105d484868361136f565b50600081815260046020908152604091829020805473ffffffffffffffffffffffffffffffffffffffff19163390811790915582519081529081018390527fefd1ddef00b1051abc144c2e895de70a10dbbc3ad8985118c74c15e40e3d391f91015b60405180910390a1505050505050565b600180546000918261065783611356565b9091555033600090815260036020526040902054909150806106be5760405160e560020a62461bcd02815260206004820152601360248201527f55736572206e6f74207265676973746572656400000000000000000000000000604482015260640161046a565b6000828152600560205260409020600181016106db86888361136f565b506106e582610e56565b815463ffffffff91909116620100000265ffffffff00001990911617815561070c84610e56565b815463ffffffff9190911666010000000000000269ffffffff0000000000001990911617815561073b43610e56565b815463ffffffff919091166a0100000000000000000000026dffffffff000000000000000000001990911617815561077242610e56565b815471ffffffff000000000000000000000000000019166e01000000000000000000000000000063ffffffff928316021782556000838152600260205260409020805461010090049091169060016107c983611437565b825463ffffffff9182166101009390930a928302919092021990911617905550600082815260066020908152604082208054600181018255908352912001839055831561089157600084815260086020908152604080832060059092528220805486939176010000000000000000000000000000000000000000000090910463ffffffff1690601661085a83611437565b91906101000a81548163ffffffff021916908363ffffffff16021790555063ffffffff168152602001908152602001600020819055505b60408051848152602081018690529081018390527f5bbfa3caf28f9667c71f81ec8bf6be6c4461bb545f4ac322e98d0fdc143a3eb890606001610636565b33600090815260036020908152604080832054848452600783528184208185529092529091205460ff166109485760405160e560020a62461bcd02815260206004820152601c60248201527f43616e6e6f7420756e6c696b65206120706f73742074776963652e2000000000604482015260640161046a565b60008281526007602090815260408083208484528252808320805460ff191690558483526005909152902080547201000000000000000000000000000000000000900463ffffffff1690601261099d8361145a565b91906101000a81548163ffffffff021916908363ffffffff160217905550507fc061ab9bd312c0ddee79813dde4491363767a2f50512d44f0c416ab6d9c2358482826000604051610a039392919092835260208301919091521515604082015260600190565b60405180910390a15050565b60066020528160005260406000208181548110610a2b57600080fd5b90600052602060002001600091509150505481565b33600090815260036020908152604080832054848452600783528184208185529092529091205460ff1615610aba5760405160e560020a62461bcd02815260206004820152601a60248201527f43616e6e6f74206c696b65206120706f73742074776963652e20000000000000604482015260640161046a565b60008281526007602090815260408083208484528252808320805460ff1916600117905584835260059091529020805463ffffffff720100000000000000000000000000000000000090910416906012610b1383611437565b91906101000a81548163ffffffff021916908363ffffffff160217905550507fc061ab9bd312c0ddee79813dde4491363767a2f50512d44f0c416ab6d9c2358482826001604051610a039392919092835260208301919091521515604082015260600190565b6002602052600090815260409020805460018201805460ff83169363ffffffff610100850481169465010000000000900416929091610bb790611133565b80601f0160208091040260200160405190810160405280929190818152602001828054610be390611133565b8015610c305780601f10610c0557610100808354040283529160200191610c30565b820191906000526020600020905b815481529060010190602001808311610c1357829003601f168201915b505050505090806002018054610c4590611133565b80601f0160208091040260200160405190810160405280929190818152602001828054610c7190611133565b8015610cbe5780601f10610c9357610100808354040283529160200191610cbe565b820191906000526020600020905b815481529060010190602001808311610ca157829003601f168201915b5050505050905085565b33600090815260036020908152604080832054868452600590925290912081610d365760405160e560020a62461bcd02815260206004820152601360248201527f55736572206e6f74207265676973746572656400000000000000000000000000604482015260640161046a565b805462010000900463ffffffff168214610d655760405160e560020a62461bcd02815260040161046a90611186565b805460c890610d88906a0100000000000000000000900463ffffffff164361147a565b1115610dff5760405160e560020a62461bcd02815260206004820152602660248201527f5468652075706461746520706f73742074696d6520686173206265656e20657860448201527f6365656465640000000000000000000000000000000000000000000000000000606482015260840161046a565b805461ff00191661010017815560018101610e1b84868361136f565b506040518581527f6b028d8032a54c1f25d3bdf66fbab62942ed25cec9e26dc705778b12d6146b8a9060200160405180910390a15050505050565b8063ffffffff81168114610e6957600080fd5b919050565b600060208284031215610e8057600080fd5b5035919050565b6000815180845260005b81811015610ead57602081850181015186830182015201610e91565b506000602082860101526020601f19601f83011685010191505092915050565b60006101208b151583528a1515602084015263ffffffff808b166040850152808a166060850152808916608085015280881660a085015280871660c085015280861660e08501525080610100840152610f2881840185610e87565b9c9b505050505050505050505050565b60008060408385031215610f4b57600080fd5b50508035926020909101359150565b60008083601f840112610f6c57600080fd5b50813567ffffffffffffffff811115610f8457600080fd5b602083019150836020828501011115610f9c57600080fd5b9250929050565b60008060008060408587031215610fb957600080fd5b843567ffffffffffffffff80821115610fd157600080fd5b610fdd88838901610f5a565b90965094506020870135915080821115610ff657600080fd5b5061100387828801610f5a565b95989497509550505050565b60008060006040848603121561102457600080fd5b833567ffffffffffffffff81111561103b57600080fd5b61104786828701610f5a565b909790965060209590950135949350505050565b60006020828403121561106d57600080fd5b813573ffffffffffffffffffffffffffffffffffffffff8116811461109157600080fd5b9392505050565b8515158152600063ffffffff808716602084015280861660408401525060a060608301526110c960a0830185610e87565b82810360808401526110db8185610e87565b98975050505050505050565b6000806000604084860312156110fc57600080fd5b83359250602084013567ffffffffffffffff81111561111a57600080fd5b61112686828701610f5a565b9497909650939450505050565b60028104600182168061114757607f821691505b602082108103611180577f4e487b7100000000000000000000000000000000000000000000000000000000600052602260045260246000fd5b50919050565b60208082526024908201527f596f7520617265206e6f7420612073656e646572206f662074686973206d657360408201527f7361676500000000000000000000000000000000000000000000000000000000606082015260800190565b7f4e487b7100000000000000000000000000000000000000000000000000000000600052604160045260246000fd5b601f82111561125c576000818152602081206020601f860104810160208610156112395750805b6020601f860104820191505b8181101561125857828155600101611245565b5050505b505050565b815167ffffffffffffffff81111561127b5761127b6111e3565b61128f816112898454611133565b84611212565b602080601f8311600181146112c857600084156112ac5750858301515b60028086026008870290910a6000190419821617865550611258565b600085815260208120601f198616915b828110156112f7578886015182559484019460019091019084016112d8565b508582101561131757878501516008601f88160260020a60001904191681555b5050505050600202600101905550565b7f4e487b7100000000000000000000000000000000000000000000000000000000600052601160045260246000fd5b60006001820161136857611368611327565b5060010190565b67ffffffffffffffff831115611387576113876111e3565b61139b836113958354611133565b83611212565b6000601f8411600181146113d357600085156113b75750838201355b60028087026008880290910a6000190419821617845550611430565b600083815260209020601f19861690835b8281101561140457868501358255602094850194600190920191016113e4565b508682101561142457858401356008601f89160260020a60001904191681555b50506001600286020183555b5050505050565b600063ffffffff80831681810361145057611450611327565b6001019392505050565b600063ffffffff82168061147057611470611327565b6000190192915050565b8181038181111561148d5761148d611327565b9291505056fea264697066735822122001f041257ea5c2e96dd0031762c7518eb6148c626decb82dcc6770b6e4b4707464736f6c63430008150033",
  "immutableReferences": {},
  "source": "// SPDX-License-Identifier: MIT\r\npragma solidity 0.8.21;\r\n\r\nimport \"@openzeppelin/contracts/utils/Context.sol\";\r\n\r\ncontract Twitter is Context {\r\n    // 60 * 10 = 10 minutes.\r\n    // BSC generates a block every 3 seconds.\r\n    uint private constant REMOVE_MAX_BLOCK_TIME = (60 * 10) / 3;\r\n\r\n    // Holds a data of a user.\r\n    struct AccountData {\r\n        // Is account under this ID registered.\r\n        bool registered;\r\n        // Number of posts user has sent.\r\n        uint32 postCount;\r\n        // Id of the account.\r\n        uint32 accountId;\r\n        // Login or nickname of this account holder.\r\n        string nickname;\r\n        // An URL to the profile image.\r\n        string avatar;\r\n    }\r\n\r\n    // Holds a data of a post.\r\n    // There are some gas savings by shorting uints and changing the variables order.\r\n    // 8 (bool) + 32 + 32 + 32 = 104 which can be stored into single 256 slot.\r\n    struct PostData {\r\n        // Was post removed.\r\n        bool removed;\r\n        // If the post was edited.\r\n        bool edited;\r\n        // Account ID of the sender.\r\n        uint32 senderId;\r\n        // ID of the post to reply.\r\n        uint32 replyId;\r\n        // A block number time of the post creation.\r\n        uint32 blockNumber;\r\n        // Post date.\r\n        uint32 timestamp;\r\n        // Amount of likes.\r\n        uint32 likes;\r\n        // Amount of replies.\r\n        uint32 repliesCount;\r\n        // Message text.\r\n        string message;\r\n    }\r\n\r\n    // Total registered users.\r\n    uint public userCount;\r\n\r\n    // Total amount of posts.\r\n    uint public postCount;\r\n\r\n    // Account ID => Account Data.\r\n    mapping(uint => AccountData) public accounts;\r\n\r\n    // Wallet Address => Account ID.\r\n    mapping(address => uint) public accountIds;\r\n\r\n    // Account ID => Wallet Address.\r\n    mapping(uint => address) public idsAccount;\r\n\r\n    // Post ID => Post Data.\r\n    mapping(uint => PostData) public posts;\r\n\r\n    // Account ID => Account Posts Array.\r\n    mapping(uint => uint[]) public userPosts;\r\n\r\n    // Post ID => Account ID => bool likes\r\n    mapping(uint => mapping(uint => bool)) public postLikes;\r\n\r\n    // Post ID => Replies.\r\n    mapping(uint => mapping(uint => uint)) public replies;\r\n\r\n    event AccountRegistered(address owner, uint accountId);\r\n    event NewPost(uint postId, uint replyId, uint senderId);\r\n    event PostEdited(uint postId);\r\n    event PostRemoved(uint postId);\r\n    event PostLiked(uint postId, uint senderId, bool state);\r\n\r\n    constructor() {\r\n        userCount = 1;\r\n        postCount = 1;\r\n    }\r\n\r\n    function register(\r\n        string calldata pNickname,\r\n        string calldata pAvatar\r\n    ) external {\r\n        AccountData storage accountData = accounts[accountIds[_msgSender()]];\r\n        require(!accountData.registered, \"Account already exists\");\r\n        uint userId = userCount++;\r\n        accountIds[_msgSender()] = userId;\r\n        accountData = accounts[userId];\r\n        accountData.registered = true;\r\n        accountData.accountId = _safeCastUint32(userId);\r\n        accountData.nickname = pNickname;\r\n        accountData.avatar = pAvatar;\r\n        idsAccount[userId] = _msgSender();\r\n\r\n        emit AccountRegistered(_msgSender(), userId);\r\n    }\r\n\r\n    function like(uint pPostId) external {\r\n        uint userId = accountIds[_msgSender()];\r\n        require(!postLikes[pPostId][userId], \"Cannot like a post twice. \");\r\n        postLikes[pPostId][userId] = true;\r\n        posts[pPostId].likes++;\r\n\r\n        emit PostLiked(pPostId, userId, true);\r\n    }\r\n\r\n    function unlike(uint pPostId) external {\r\n        uint userId = accountIds[_msgSender()];\r\n        require(postLikes[pPostId][userId], \"Cannot unlike a post twice. \");\r\n        postLikes[pPostId][userId] = false;\r\n        posts[pPostId].likes--;\r\n\r\n        emit PostLiked(pPostId, userId, false);\r\n    }\r\n\r\n    function post(string calldata pMessage, uint pReplyId) external {\r\n        uint postId = postCount++;\r\n        uint userId = accountIds[_msgSender()];\r\n        require(userId > 0, \"User not registered\");\r\n        PostData storage postData = posts[postId];\r\n        postData.message = pMessage;\r\n        postData.senderId = _safeCastUint32(userId);\r\n        postData.replyId = _safeCastUint32(pReplyId);\r\n        postData.blockNumber = _safeCastUint32(block.number);\r\n        postData.timestamp = _safeCastUint32(block.timestamp);\r\n        accounts[userId].postCount++;\r\n        userPosts[userId].push(postId);\r\n        if (pReplyId > 0) {\r\n            replies[pReplyId][posts[pReplyId].repliesCount++] = postId;\r\n        }\r\n\r\n        emit NewPost(postId, pReplyId, userId);\r\n    }\r\n\r\n    function editPost(uint pPostId, string calldata pMessage) external {\r\n        uint userId = accountIds[_msgSender()];\r\n        PostData storage postData = posts[pPostId];\r\n        require(userId > 0, \"User not registered\");\r\n        require(\r\n            postData.senderId == userId,\r\n            \"You are not a sender of this message\"\r\n        );\r\n        require(\r\n            (block.number - postData.blockNumber) <= REMOVE_MAX_BLOCK_TIME,\r\n            \"The update post time has been exceeded\"\r\n        );\r\n        postData.edited = true;\r\n        postData.message = pMessage;\r\n\r\n        emit PostEdited(pPostId);\r\n    }\r\n\r\n    function removePost(uint pPostId) external {\r\n        uint userId = accountIds[_msgSender()];\r\n        PostData storage postData = posts[pPostId];\r\n        require(\r\n            postData.senderId == userId,\r\n            \"You are not a sender of this message\"\r\n        );\r\n        postData.removed = true;\r\n        postData.message = \"\";\r\n\r\n        emit PostRemoved(pPostId);\r\n    }\r\n\r\n    function _safeCastUint32(\r\n        uint value\r\n    ) private pure returns (uint32 retvalue) {\r\n        retvalue = uint32(value);\r\n        // If underflow or overflow the values would be different.\r\n        require(retvalue == value);\r\n    }\r\n}\r\n",
  "sourcePath": "C:\\Users\\radeg\\Desktop\\portfolio\\web3-twitter\\contracts\\Twitter.sol",
  "compiler": {
    "name": "solc",
    "version": "0.8.21+commit.d9974bed.Emscripten.clang"
  },
  "schemaVersion": "3.4.16",
  "updatedAt": "2024-01-11T13:04:43.684Z",
  "networkType": "ethereum",
  "devdoc": {
    "kind": "dev",
    "methods": {},
    "version": 1
  },
  "userdoc": {
    "kind": "user",
    "methods": {},
    "version": 1
  }
}